{
  "address": "0xb2dCEB0C7C686853BbA2dB9e04BE48B0d429Bbcb",
  "abi": [
    {
      "inputs": [],
      "name": "NotificationService__ChannelAlreadyCreated",
      "type": "error"
    },
    {
      "inputs": [],
      "name": "NotificationService__ChannelDoesNotExist",
      "type": "error"
    },
    {
      "inputs": [],
      "name": "NotificationService__ChannelNotActive",
      "type": "error"
    },
    {
      "inputs": [],
      "name": "NotificationService__ChannelNotMuted",
      "type": "error"
    },
    {
      "inputs": [],
      "name": "NotificationService__NeitherAdminNorDelegate",
      "type": "error"
    },
    {
      "inputs": [],
      "name": "NotificationService__NotADelegate",
      "type": "error"
    },
    {
      "inputs": [],
      "name": "NotificationService__NotAdmin",
      "type": "error"
    },
    {
      "inputs": [],
      "name": "NotificationService__UserAlreadySubscribed",
      "type": "error"
    },
    {
      "inputs": [],
      "name": "NotificationService__UserNotSubscribed",
      "type": "error"
    },
    {
      "inputs": [],
      "name": "NotificationService__ZeroAddress",
      "type": "error"
    },
    {
      "anonymous": false,
      "inputs": [
        {
          "indexed": true,
          "internalType": "address",
          "name": "channelAddress",
          "type": "address"
        },
        {
          "indexed": true,
          "internalType": "address",
          "name": "admin",
          "type": "address"
        },
        {
          "indexed": false,
          "internalType": "string",
          "name": "channelName",
          "type": "string"
        },
        {
          "indexed": false,
          "internalType": "string",
          "name": "channelDescription",
          "type": "string"
        }
      ],
      "name": "ChannelCreated",
      "type": "event"
    },
    {
      "anonymous": false,
      "inputs": [
        {
          "indexed": true,
          "internalType": "address",
          "name": "channelAddress",
          "type": "address"
        }
      ],
      "name": "ChannelDeleted",
      "type": "event"
    },
    {
      "anonymous": false,
      "inputs": [
        {
          "indexed": true,
          "internalType": "address",
          "name": "channelAddress",
          "type": "address"
        }
      ],
      "name": "ChannelMuted",
      "type": "event"
    },
    {
      "anonymous": false,
      "inputs": [
        {
          "indexed": true,
          "internalType": "address",
          "name": "channelAddress",
          "type": "address"
        }
      ],
      "name": "ChannelUnmuted",
      "type": "event"
    },
    {
      "anonymous": false,
      "inputs": [
        {
          "indexed": true,
          "internalType": "address",
          "name": "channelAddress",
          "type": "address"
        },
        {
          "indexed": true,
          "internalType": "address",
          "name": "delegate",
          "type": "address"
        }
      ],
      "name": "DelegateAdded",
      "type": "event"
    },
    {
      "anonymous": false,
      "inputs": [
        {
          "indexed": true,
          "internalType": "address",
          "name": "channelAddress",
          "type": "address"
        },
        {
          "indexed": true,
          "internalType": "address",
          "name": "delegate",
          "type": "address"
        }
      ],
      "name": "DelegateRemoved",
      "type": "event"
    },
    {
      "anonymous": false,
      "inputs": [
        {
          "indexed": true,
          "internalType": "address",
          "name": "channelAddress",
          "type": "address"
        },
        {
          "indexed": true,
          "internalType": "address",
          "name": "recipient",
          "type": "address"
        },
        {
          "components": [
            {
              "internalType": "address",
              "name": "channelAddress",
              "type": "address"
            },
            {
              "internalType": "address",
              "name": "recipient",
              "type": "address"
            },
            {
              "internalType": "string",
              "name": "message",
              "type": "string"
            }
          ],
          "indexed": false,
          "internalType": "struct NotificationService.Notification",
          "name": "notification",
          "type": "tuple"
        }
      ],
      "name": "NotificationGenerated",
      "type": "event"
    },
    {
      "anonymous": false,
      "inputs": [
        {
          "indexed": true,
          "internalType": "address",
          "name": "channelAddress",
          "type": "address"
        },
        {
          "indexed": true,
          "internalType": "address",
          "name": "subscriber",
          "type": "address"
        }
      ],
      "name": "UserSubscribed",
      "type": "event"
    },
    {
      "anonymous": false,
      "inputs": [
        {
          "indexed": true,
          "internalType": "address",
          "name": "channelAddress",
          "type": "address"
        },
        {
          "indexed": true,
          "internalType": "address",
          "name": "subscriber",
          "type": "address"
        }
      ],
      "name": "UserUnsubscribed",
      "type": "event"
    },
    {
      "inputs": [
        {
          "internalType": "address",
          "name": "_channelAddress",
          "type": "address"
        },
        {
          "internalType": "address",
          "name": "delegate",
          "type": "address"
        }
      ],
      "name": "addDelegate",
      "outputs": [],
      "stateMutability": "nonpayable",
      "type": "function"
    },
    {
      "inputs": [
        {
          "internalType": "address",
          "name": "_channelAddress",
          "type": "address"
        },
        {
          "internalType": "string",
          "name": "_message",
          "type": "string"
        }
      ],
      "name": "broadcastNotification",
      "outputs": [],
      "stateMutability": "nonpayable",
      "type": "function"
    },
    {
      "inputs": [],
      "name": "channelCounter",
      "outputs": [
        {
          "internalType": "uint256",
          "name": "",
          "type": "uint256"
        }
      ],
      "stateMutability": "view",
      "type": "function"
    },
    {
      "inputs": [
        {
          "internalType": "address",
          "name": "_channelAddress",
          "type": "address"
        },
        {
          "internalType": "string",
          "name": "_channelName",
          "type": "string"
        },
        {
          "internalType": "string",
          "name": "_channelDescription",
          "type": "string"
        }
      ],
      "name": "createChannel",
      "outputs": [],
      "stateMutability": "nonpayable",
      "type": "function"
    },
    {
      "inputs": [
        {
          "internalType": "address",
          "name": "_channelAddress",
          "type": "address"
        }
      ],
      "name": "deleteChannel",
      "outputs": [],
      "stateMutability": "nonpayable",
      "type": "function"
    },
    {
      "inputs": [
        {
          "internalType": "address",
          "name": "_channelAddress",
          "type": "address"
        }
      ],
      "name": "muteChannel",
      "outputs": [],
      "stateMutability": "nonpayable",
      "type": "function"
    },
    {
      "inputs": [
        {
          "internalType": "address",
          "name": "_channelAddress",
          "type": "address"
        },
        {
          "internalType": "address",
          "name": "delegate",
          "type": "address"
        }
      ],
      "name": "removeDelegate",
      "outputs": [],
      "stateMutability": "nonpayable",
      "type": "function"
    },
    {
      "inputs": [
        {
          "internalType": "address",
          "name": "_channelAddress",
          "type": "address"
        },
        {
          "internalType": "address",
          "name": "_recipient",
          "type": "address"
        },
        {
          "internalType": "string",
          "name": "_message",
          "type": "string"
        }
      ],
      "name": "sendNotification",
      "outputs": [],
      "stateMutability": "nonpayable",
      "type": "function"
    },
    {
      "inputs": [
        {
          "internalType": "address",
          "name": "_channelAddress",
          "type": "address"
        }
      ],
      "name": "subscribe",
      "outputs": [],
      "stateMutability": "nonpayable",
      "type": "function"
    },
    {
      "inputs": [
        {
          "internalType": "address",
          "name": "_channelAddress",
          "type": "address"
        }
      ],
      "name": "unmuteChannel",
      "outputs": [],
      "stateMutability": "nonpayable",
      "type": "function"
    },
    {
      "inputs": [
        {
          "internalType": "address",
          "name": "_channelAddress",
          "type": "address"
        }
      ],
      "name": "unsubscribe",
      "outputs": [],
      "stateMutability": "nonpayable",
      "type": "function"
    }
  ],
  "transactionHash": "0x196968ef50a9a802087c2171abf75dd804fc7e900b1c6433ed8544922d0a1dfd",
  "args": [],
  "numDeployments": 3,
  "solcInputHash": "8394818dbf36263c73ad8b7f316140a7",
  "bytecode": "0x608060405234801561001057600080fd5b506137cd806100206000396000f3fe608060405234801561001057600080fd5b50600436106100a95760003560e01c80636d8426c4116100715780636d8426c41461013c5780637262561c1461015857806384b6e35b14610174578063954686ed14610190578063aca30a2b146101ac578063e909ebfa146101c8576100a9565b8063020d308d146100ae5780632ad29fa9146100ca57806341a7726a146100e6578063587eb6cb146101025780635a1047461461011e575b600080fd5b6100c860048036038101906100c39190613165565b6101e4565b005b6100e460048036038101906100df91906131a5565b610839565b005b61010060048036038101906100fb91906131a5565b610b2e565b005b61011c60048036038101906101179190613318565b610fae565b005b6101266113d7565b60405161013391906133a0565b60405180910390f35b610156600480360381019061015191906133bb565b6113dd565b005b610172600480360381019061016d91906131a5565b611812565b005b61018e600480360381019061018991906131a5565b611cc6565b005b6101aa60048036038101906101a59190613446565b611fbb565b005b6101c660048036038101906101c191906131a5565b612316565b005b6101e260048036038101906101dd9190613165565b612942565b005b80600073ffffffffffffffffffffffffffffffffffffffff168173ffffffffffffffffffffffffffffffffffffffff16141561024c576040517f8019691f00000000000000000000000000000000000000000000000000000000815260040160405180910390fd5b82600073ffffffffffffffffffffffffffffffffffffffff168173ffffffffffffffffffffffffffffffffffffffff1614156102b4576040517f8019691f00000000000000000000000000000000000000000000000000000000815260040160405180910390fd5b83600073ffffffffffffffffffffffffffffffffffffffff16600260008373ffffffffffffffffffffffffffffffffffffffff1673ffffffffffffffffffffffffffffffffffffffff16815260200190815260200160002060010160009054906101000a900473ffffffffffffffffffffffffffffffffffffffff1673ffffffffffffffffffffffffffffffffffffffff16141561037d576040517e8b9a6b00000000000000000000000000000000000000000000000000000000815260040160405180910390fd5b8433600260008373ffffffffffffffffffffffffffffffffffffffff1673ffffffffffffffffffffffffffffffffffffffff16815260200190815260200160002060010160009054906101000a900473ffffffffffffffffffffffffffffffffffffffff1673ffffffffffffffffffffffffffffffffffffffff168173ffffffffffffffffffffffffffffffffffffffff1614610446576040517fd365c38100000000000000000000000000000000000000000000000000000000815260040160405180910390fd5b8686600073ffffffffffffffffffffffffffffffffffffffff16600160008473ffffffffffffffffffffffffffffffffffffffff1673ffffffffffffffffffffffffffffffffffffffff16815260200190815260200160002060008373ffffffffffffffffffffffffffffffffffffffff1673ffffffffffffffffffffffffffffffffffffffff16815260200190815260200160002060000160009054906101000a900473ffffffffffffffffffffffffffffffffffffffff1673ffffffffffffffffffffffffffffffffffffffff16141561054e576040517f05f8ec5100000000000000000000000000000000000000000000000000000000815260040160405180910390fd5b6000600160008b73ffffffffffffffffffffffffffffffffffffffff1673ffffffffffffffffffffffffffffffffffffffff16815260200190815260200160002060008a73ffffffffffffffffffffffffffffffffffffffff1673ffffffffffffffffffffffffffffffffffffffff16815260200190815260200160002060020154905060006106a4600260008d73ffffffffffffffffffffffffffffffffffffffff1673ffffffffffffffffffffffffffffffffffffffff16815260200190815260200160002060050180548060200260200160405190810160405280929190818152602001828054801561069957602002820191906000526020600020905b8160009054906101000a900473ffffffffffffffffffffffffffffffffffffffff1673ffffffffffffffffffffffffffffffffffffffff168152602001906001019080831161064f575b505050505083612e59565b905080600260008d73ffffffffffffffffffffffffffffffffffffffff1673ffffffffffffffffffffffffffffffffffffffff16815260200190815260200160002060050190805190602001906106fc929190612f65565b50600160008c73ffffffffffffffffffffffffffffffffffffffff1673ffffffffffffffffffffffffffffffffffffffff16815260200190815260200160002060008b73ffffffffffffffffffffffffffffffffffffffff1673ffffffffffffffffffffffffffffffffffffffff168152602001908152602001600020600080820160006101000a81549073ffffffffffffffffffffffffffffffffffffffff02191690556001820160006101000a81549073ffffffffffffffffffffffffffffffffffffffff0219169055600282016000905550508973ffffffffffffffffffffffffffffffffffffffff168b73ffffffffffffffffffffffffffffffffffffffff167fe8514dd4be968431135580c26314ec35afafc8178268603f99625584960d9c1660405160405180910390a35050505050505050505050565b80600073ffffffffffffffffffffffffffffffffffffffff16600260008373ffffffffffffffffffffffffffffffffffffffff1673ffffffffffffffffffffffffffffffffffffffff16815260200190815260200160002060010160009054906101000a900473ffffffffffffffffffffffffffffffffffffffff1673ffffffffffffffffffffffffffffffffffffffff161415610902576040517e8b9a6b00000000000000000000000000000000000000000000000000000000815260040160405180910390fd5b8133600260008373ffffffffffffffffffffffffffffffffffffffff1673ffffffffffffffffffffffffffffffffffffffff16815260200190815260200160002060010160009054906101000a900473ffffffffffffffffffffffffffffffffffffffff1673ffffffffffffffffffffffffffffffffffffffff168173ffffffffffffffffffffffffffffffffffffffff16146109cb576040517fd365c38100000000000000000000000000000000000000000000000000000000815260040160405180910390fd5b83600060028111156109e0576109df6134a2565b5b600260008373ffffffffffffffffffffffffffffffffffffffff1673ffffffffffffffffffffffffffffffffffffffff16815260200190815260200160002060040160009054906101000a900460ff166002811115610a4257610a416134a2565b5b14610a79576040517fda5b6a4d00000000000000000000000000000000000000000000000000000000815260040160405180910390fd5b6001600260008773ffffffffffffffffffffffffffffffffffffffff1673ffffffffffffffffffffffffffffffffffffffff16815260200190815260200160002060040160006101000a81548160ff02191690836002811115610adf57610ade6134a2565b5b02179055508473ffffffffffffffffffffffffffffffffffffffff167f5b25bcb39af4b4eab47fc7206ad21ef0e17d340d568ec74eab30cbee7f010c5760405160405180910390a25050505050565b80600073ffffffffffffffffffffffffffffffffffffffff16600260008373ffffffffffffffffffffffffffffffffffffffff1673ffffffffffffffffffffffffffffffffffffffff16815260200190815260200160002060010160009054906101000a900473ffffffffffffffffffffffffffffffffffffffff1673ffffffffffffffffffffffffffffffffffffffff161415610bf7576040517e8b9a6b00000000000000000000000000000000000000000000000000000000815260040160405180910390fd5b8133600073ffffffffffffffffffffffffffffffffffffffff166000808473ffffffffffffffffffffffffffffffffffffffff1673ffffffffffffffffffffffffffffffffffffffff16815260200190815260200160002060008373ffffffffffffffffffffffffffffffffffffffff1673ffffffffffffffffffffffffffffffffffffffff16815260200190815260200160002060000160009054906101000a900473ffffffffffffffffffffffffffffffffffffffff1673ffffffffffffffffffffffffffffffffffffffff1614610cfd576040517f417678e800000000000000000000000000000000000000000000000000000000815260040160405180910390fd5b6000600260008673ffffffffffffffffffffffffffffffffffffffff1673ffffffffffffffffffffffffffffffffffffffff168152602001908152602001600020600601805490509050600260008673ffffffffffffffffffffffffffffffffffffffff1673ffffffffffffffffffffffffffffffffffffffff168152602001908152602001600020600601339080600181540180825580915050600190039060005260206000200160009091909190916101000a81548173ffffffffffffffffffffffffffffffffffffffff021916908373ffffffffffffffffffffffffffffffffffffffff160217905550600060405180606001604052808773ffffffffffffffffffffffffffffffffffffffff1681526020013373ffffffffffffffffffffffffffffffffffffffff168152602001838152509050806000808873ffffffffffffffffffffffffffffffffffffffff1673ffffffffffffffffffffffffffffffffffffffff16815260200190815260200160002060003373ffffffffffffffffffffffffffffffffffffffff1673ffffffffffffffffffffffffffffffffffffffff16815260200190815260200160002060008201518160000160006101000a81548173ffffffffffffffffffffffffffffffffffffffff021916908373ffffffffffffffffffffffffffffffffffffffff16021790555060208201518160010160006101000a81548173ffffffffffffffffffffffffffffffffffffffff021916908373ffffffffffffffffffffffffffffffffffffffff160217905550604082015181600201559050503373ffffffffffffffffffffffffffffffffffffffff168673ffffffffffffffffffffffffffffffffffffffff167fb7b27b1fd3dd1d1213a25bac3b933eb564771a6432b8ec4438dba3a415eac37760405160405180910390a3505050505050565b82600073ffffffffffffffffffffffffffffffffffffffff16600260008373ffffffffffffffffffffffffffffffffffffffff1673ffffffffffffffffffffffffffffffffffffffff16815260200190815260200160002060010160009054906101000a900473ffffffffffffffffffffffffffffffffffffffff1673ffffffffffffffffffffffffffffffffffffffff161415611077576040517e8b9a6b00000000000000000000000000000000000000000000000000000000815260040160405180910390fd5b8333600260008373ffffffffffffffffffffffffffffffffffffffff1673ffffffffffffffffffffffffffffffffffffffff16815260200190815260200160002060010160009054906101000a900473ffffffffffffffffffffffffffffffffffffffff1673ffffffffffffffffffffffffffffffffffffffff168173ffffffffffffffffffffffffffffffffffffffff1614806111df5750600160008373ffffffffffffffffffffffffffffffffffffffff1673ffffffffffffffffffffffffffffffffffffffff16815260200190815260200160002060008273ffffffffffffffffffffffffffffffffffffffff1673ffffffffffffffffffffffffffffffffffffffff16815260200190815260200160002060010160009054906101000a900473ffffffffffffffffffffffffffffffffffffffff1673ffffffffffffffffffffffffffffffffffffffff168173ffffffffffffffffffffffffffffffffffffffff16145b611215576040517fd2d6d6b300000000000000000000000000000000000000000000000000000000815260040160405180910390fd5b8486600073ffffffffffffffffffffffffffffffffffffffff166000808373ffffffffffffffffffffffffffffffffffffffff1673ffffffffffffffffffffffffffffffffffffffff16815260200190815260200160002060008473ffffffffffffffffffffffffffffffffffffffff1673ffffffffffffffffffffffffffffffffffffffff16815260200190815260200160002060000160009054906101000a900473ffffffffffffffffffffffffffffffffffffffff1673ffffffffffffffffffffffffffffffffffffffff16141561131c576040517fa8c6cdf700000000000000000000000000000000000000000000000000000000815260040160405180910390fd5b600060405180606001604052808a73ffffffffffffffffffffffffffffffffffffffff1681526020018973ffffffffffffffffffffffffffffffffffffffff1681526020018881525090508773ffffffffffffffffffffffffffffffffffffffff168973ffffffffffffffffffffffffffffffffffffffff167f5246542eb68a0157e01837eed47d3ef4ecd70f7c13b61a9c886b980563f7e23e836040516113c491906135b8565b60405180910390a3505050505050505050565b60035481565b82600073ffffffffffffffffffffffffffffffffffffffff168173ffffffffffffffffffffffffffffffffffffffff161415611445576040517f8019691f00000000000000000000000000000000000000000000000000000000815260040160405180910390fd5b83600073ffffffffffffffffffffffffffffffffffffffff16600260008373ffffffffffffffffffffffffffffffffffffffff1673ffffffffffffffffffffffffffffffffffffffff16815260200190815260200160002060010160009054906101000a900473ffffffffffffffffffffffffffffffffffffffff1673ffffffffffffffffffffffffffffffffffffffff161461150e576040517fa427a94d00000000000000000000000000000000000000000000000000000000815260040160405180910390fd5b60006040518060e001604052808773ffffffffffffffffffffffffffffffffffffffff1681526020013373ffffffffffffffffffffffffffffffffffffffff16815260200186815260200185815260200160006002811115611573576115726134a2565b5b8152602001600067ffffffffffffffff811115611593576115926131ed565b5b6040519080825280602002602001820160405280156115c15781602001602082028036833780820191505090505b508152602001600067ffffffffffffffff8111156115e2576115e16131ed565b5b6040519080825280602002602001820160405280156116105781602001602082028036833780820191505090505b50815250905080600260008873ffffffffffffffffffffffffffffffffffffffff1673ffffffffffffffffffffffffffffffffffffffff16815260200190815260200160002060008201518160000160006101000a81548173ffffffffffffffffffffffffffffffffffffffff021916908373ffffffffffffffffffffffffffffffffffffffff16021790555060208201518160010160006101000a81548173ffffffffffffffffffffffffffffffffffffffff021916908373ffffffffffffffffffffffffffffffffffffffff1602179055506040820151816002019080519060200190611700929190612fef565b50606082015181600301908051906020019061171d929190612fef565b5060808201518160040160006101000a81548160ff02191690836002811115611749576117486134a2565b5b021790555060a082015181600501908051906020019061176a929190612f65565b5060c0820151816006019080519060200190611787929190612f65565b509050506003600081548092919061179e90613609565b91905055503373ffffffffffffffffffffffffffffffffffffffff168673ffffffffffffffffffffffffffffffffffffffff167f0369dd52c13526f8d42f5bfe09d1b7a14ab4535315a3ac318b8fa1cd012338f5878760405161180292919061369c565b60405180910390a3505050505050565b80600073ffffffffffffffffffffffffffffffffffffffff16600260008373ffffffffffffffffffffffffffffffffffffffff1673ffffffffffffffffffffffffffffffffffffffff16815260200190815260200160002060010160009054906101000a900473ffffffffffffffffffffffffffffffffffffffff1673ffffffffffffffffffffffffffffffffffffffff1614156118db576040517e8b9a6b00000000000000000000000000000000000000000000000000000000815260040160405180910390fd5b3382600073ffffffffffffffffffffffffffffffffffffffff166000808373ffffffffffffffffffffffffffffffffffffffff1673ffffffffffffffffffffffffffffffffffffffff16815260200190815260200160002060008473ffffffffffffffffffffffffffffffffffffffff1673ffffffffffffffffffffffffffffffffffffffff16815260200190815260200160002060000160009054906101000a900473ffffffffffffffffffffffffffffffffffffffff1673ffffffffffffffffffffffffffffffffffffffff1614156119e2576040517fa8c6cdf700000000000000000000000000000000000000000000000000000000815260040160405180910390fd5b60008060008673ffffffffffffffffffffffffffffffffffffffff1673ffffffffffffffffffffffffffffffffffffffff16815260200190815260200160002060003373ffffffffffffffffffffffffffffffffffffffff1673ffffffffffffffffffffffffffffffffffffffff1681526020019081526020016000206002015490506000611b37600260008873ffffffffffffffffffffffffffffffffffffffff1673ffffffffffffffffffffffffffffffffffffffff168152602001908152602001600020600601805480602002602001604051908101604052809291908181526020018280548015611b2c57602002820191906000526020600020905b8160009054906101000a900473ffffffffffffffffffffffffffffffffffffffff1673ffffffffffffffffffffffffffffffffffffffff1681526020019060010190808311611ae2575b505050505083612e59565b905080600260008873ffffffffffffffffffffffffffffffffffffffff1673ffffffffffffffffffffffffffffffffffffffff1681526020019081526020016000206006019080519060200190611b8f929190612f65565b506000808773ffffffffffffffffffffffffffffffffffffffff1673ffffffffffffffffffffffffffffffffffffffff16815260200190815260200160002060003373ffffffffffffffffffffffffffffffffffffffff1673ffffffffffffffffffffffffffffffffffffffff168152602001908152602001600020600080820160006101000a81549073ffffffffffffffffffffffffffffffffffffffff02191690556001820160006101000a81549073ffffffffffffffffffffffffffffffffffffffff0219169055600282016000905550503373ffffffffffffffffffffffffffffffffffffffff168673ffffffffffffffffffffffffffffffffffffffff167fbde21f4d99bf4798edf8c5f5d9a10d0542568c21a87ea97ad3cf66b6db66a3c260405160405180910390a3505050505050565b80600073ffffffffffffffffffffffffffffffffffffffff16600260008373ffffffffffffffffffffffffffffffffffffffff1673ffffffffffffffffffffffffffffffffffffffff16815260200190815260200160002060010160009054906101000a900473ffffffffffffffffffffffffffffffffffffffff1673ffffffffffffffffffffffffffffffffffffffff161415611d8f576040517e8b9a6b00000000000000000000000000000000000000000000000000000000815260040160405180910390fd5b8133600260008373ffffffffffffffffffffffffffffffffffffffff1673ffffffffffffffffffffffffffffffffffffffff16815260200190815260200160002060010160009054906101000a900473ffffffffffffffffffffffffffffffffffffffff1673ffffffffffffffffffffffffffffffffffffffff168173ffffffffffffffffffffffffffffffffffffffff1614611e58576040517fd365c38100000000000000000000000000000000000000000000000000000000815260040160405180910390fd5b8360016002811115611e6d57611e6c6134a2565b5b600260008373ffffffffffffffffffffffffffffffffffffffff1673ffffffffffffffffffffffffffffffffffffffff16815260200190815260200160002060040160009054906101000a900460ff166002811115611ecf57611ece6134a2565b5b14611f06576040517f0e9b9db300000000000000000000000000000000000000000000000000000000815260040160405180910390fd5b6000600260008773ffffffffffffffffffffffffffffffffffffffff1673ffffffffffffffffffffffffffffffffffffffff16815260200190815260200160002060040160006101000a81548160ff02191690836002811115611f6c57611f6b6134a2565b5b02179055508473ffffffffffffffffffffffffffffffffffffffff167fc0ae5fb2f18b0c4536265ee4b6c3bb818cafadbaf03ac2db111a43b19319f93160405160405180910390a25050505050565b81600073ffffffffffffffffffffffffffffffffffffffff16600260008373ffffffffffffffffffffffffffffffffffffffff1673ffffffffffffffffffffffffffffffffffffffff16815260200190815260200160002060010160009054906101000a900473ffffffffffffffffffffffffffffffffffffffff1673ffffffffffffffffffffffffffffffffffffffff161415612084576040517e8b9a6b00000000000000000000000000000000000000000000000000000000815260040160405180910390fd5b8233600260008373ffffffffffffffffffffffffffffffffffffffff1673ffffffffffffffffffffffffffffffffffffffff16815260200190815260200160002060010160009054906101000a900473ffffffffffffffffffffffffffffffffffffffff1673ffffffffffffffffffffffffffffffffffffffff168173ffffffffffffffffffffffffffffffffffffffff1614806121ec5750600160008373ffffffffffffffffffffffffffffffffffffffff1673ffffffffffffffffffffffffffffffffffffffff16815260200190815260200160002060008273ffffffffffffffffffffffffffffffffffffffff1673ffffffffffffffffffffffffffffffffffffffff16815260200190815260200160002060010160009054906101000a900473ffffffffffffffffffffffffffffffffffffffff1673ffffffffffffffffffffffffffffffffffffffff168173ffffffffffffffffffffffffffffffffffffffff16145b612222576040517fd2d6d6b300000000000000000000000000000000000000000000000000000000815260040160405180910390fd5b60005b600260008773ffffffffffffffffffffffffffffffffffffffff1673ffffffffffffffffffffffffffffffffffffffff1681526020019081526020016000206006018054905081101561230e576122fb86600260008973ffffffffffffffffffffffffffffffffffffffff1673ffffffffffffffffffffffffffffffffffffffff16815260200190815260200160002060060183815481106122ca576122c96136d3565b5b9060005260206000200160009054906101000a900473ffffffffffffffffffffffffffffffffffffffff1687610fae565b808061230690613609565b915050612225565b505050505050565b80600073ffffffffffffffffffffffffffffffffffffffff16600260008373ffffffffffffffffffffffffffffffffffffffff1673ffffffffffffffffffffffffffffffffffffffff16815260200190815260200160002060010160009054906101000a900473ffffffffffffffffffffffffffffffffffffffff1673ffffffffffffffffffffffffffffffffffffffff1614156123df576040517e8b9a6b00000000000000000000000000000000000000000000000000000000815260040160405180910390fd5b8133600260008373ffffffffffffffffffffffffffffffffffffffff1673ffffffffffffffffffffffffffffffffffffffff16815260200190815260200160002060010160009054906101000a900473ffffffffffffffffffffffffffffffffffffffff1673ffffffffffffffffffffffffffffffffffffffff168173ffffffffffffffffffffffffffffffffffffffff16146124a8576040517fd365c38100000000000000000000000000000000000000000000000000000000815260040160405180910390fd5b60005b600260008673ffffffffffffffffffffffffffffffffffffffff1673ffffffffffffffffffffffffffffffffffffffff1681526020019081526020016000206005018054905081101561265e57600160008673ffffffffffffffffffffffffffffffffffffffff1673ffffffffffffffffffffffffffffffffffffffff1681526020019081526020016000206000600260008873ffffffffffffffffffffffffffffffffffffffff1673ffffffffffffffffffffffffffffffffffffffff168152602001908152602001600020600501838154811061258d5761258c6136d3565b5b9060005260206000200160009054906101000a900473ffffffffffffffffffffffffffffffffffffffff1673ffffffffffffffffffffffffffffffffffffffff1673ffffffffffffffffffffffffffffffffffffffff168152602001908152602001600020600080820160006101000a81549073ffffffffffffffffffffffffffffffffffffffff02191690556001820160006101000a81549073ffffffffffffffffffffffffffffffffffffffff021916905560028201600090555050808061265690613609565b9150506124ab565b5060005b600260008673ffffffffffffffffffffffffffffffffffffffff1673ffffffffffffffffffffffffffffffffffffffff16815260200190815260200160002060060180549050811015612814576000808673ffffffffffffffffffffffffffffffffffffffff1673ffffffffffffffffffffffffffffffffffffffff1681526020019081526020016000206000600260008873ffffffffffffffffffffffffffffffffffffffff1673ffffffffffffffffffffffffffffffffffffffff1681526020019081526020016000206006018381548110612743576127426136d3565b5b9060005260206000200160009054906101000a900473ffffffffffffffffffffffffffffffffffffffff1673ffffffffffffffffffffffffffffffffffffffff1673ffffffffffffffffffffffffffffffffffffffff168152602001908152602001600020600080820160006101000a81549073ffffffffffffffffffffffffffffffffffffffff02191690556001820160006101000a81549073ffffffffffffffffffffffffffffffffffffffff021916905560028201600090555050808061280c90613609565b915050612662565b50600260008573ffffffffffffffffffffffffffffffffffffffff1673ffffffffffffffffffffffffffffffffffffffff168152602001908152602001600020600080820160006101000a81549073ffffffffffffffffffffffffffffffffffffffff02191690556001820160006101000a81549073ffffffffffffffffffffffffffffffffffffffff02191690556002820160006128b39190613075565b6003820160006128c39190613075565b6004820160006101000a81549060ff02191690556005820160006128e791906130b5565b6006820160006128f791906130b5565b50508373ffffffffffffffffffffffffffffffffffffffff167f10812805591e289329d04bb0d7d88280e1db08894b6f4a0d9d4458eed9a50e4f60405160405180910390a250505050565b80600073ffffffffffffffffffffffffffffffffffffffff168173ffffffffffffffffffffffffffffffffffffffff1614156129aa576040517f8019691f00000000000000000000000000000000000000000000000000000000815260040160405180910390fd5b82600073ffffffffffffffffffffffffffffffffffffffff168173ffffffffffffffffffffffffffffffffffffffff161415612a12576040517f8019691f00000000000000000000000000000000000000000000000000000000815260040160405180910390fd5b83600073ffffffffffffffffffffffffffffffffffffffff16600260008373ffffffffffffffffffffffffffffffffffffffff1673ffffffffffffffffffffffffffffffffffffffff16815260200190815260200160002060010160009054906101000a900473ffffffffffffffffffffffffffffffffffffffff1673ffffffffffffffffffffffffffffffffffffffff161415612adb576040517e8b9a6b00000000000000000000000000000000000000000000000000000000815260040160405180910390fd5b8433600260008373ffffffffffffffffffffffffffffffffffffffff1673ffffffffffffffffffffffffffffffffffffffff16815260200190815260200160002060010160009054906101000a900473ffffffffffffffffffffffffffffffffffffffff1673ffffffffffffffffffffffffffffffffffffffff168173ffffffffffffffffffffffffffffffffffffffff1614612ba4576040517fd365c38100000000000000000000000000000000000000000000000000000000815260040160405180910390fd5b6000600260008973ffffffffffffffffffffffffffffffffffffffff1673ffffffffffffffffffffffffffffffffffffffff168152602001908152602001600020600501805490509050600260008973ffffffffffffffffffffffffffffffffffffffff1673ffffffffffffffffffffffffffffffffffffffff168152602001908152602001600020600501879080600181540180825580915050600190039060005260206000200160009091909190916101000a81548173ffffffffffffffffffffffffffffffffffffffff021916908373ffffffffffffffffffffffffffffffffffffffff160217905550600060405180606001604052808a73ffffffffffffffffffffffffffffffffffffffff1681526020018973ffffffffffffffffffffffffffffffffffffffff16815260200183815250905080600160008b73ffffffffffffffffffffffffffffffffffffffff1673ffffffffffffffffffffffffffffffffffffffff16815260200190815260200160002060008a73ffffffffffffffffffffffffffffffffffffffff1673ffffffffffffffffffffffffffffffffffffffff16815260200190815260200160002060008201518160000160006101000a81548173ffffffffffffffffffffffffffffffffffffffff021916908373ffffffffffffffffffffffffffffffffffffffff16021790555060208201518160010160006101000a81548173ffffffffffffffffffffffffffffffffffffffff021916908373ffffffffffffffffffffffffffffffffffffffff160217905550604082015181600201559050508773ffffffffffffffffffffffffffffffffffffffff168973ffffffffffffffffffffffffffffffffffffffff167f12dade473695d73bd34e031c850d5e815fa17a42b1b5ba13ff72de2497c5e30960405160405180910390a3505050505050505050565b6060600060018451612e6b9190613702565b67ffffffffffffffff811115612e8457612e836131ed565b5b604051908082528060200260200182016040528015612eb25781602001602082028036833780820191505090505b5090506000805b8551821015612f595784821415612ecf57612f46565b858281518110612ee257612ee16136d3565b5b6020026020010151838281518110612efd57612efc6136d3565b5b602002602001019073ffffffffffffffffffffffffffffffffffffffff16908173ffffffffffffffffffffffffffffffffffffffff16815250508080612f4290613609565b9150505b8180612f5190613609565b925050612eb9565b82935050505092915050565b828054828255906000526020600020908101928215612fde579160200282015b82811115612fdd5782518260006101000a81548173ffffffffffffffffffffffffffffffffffffffff021916908373ffffffffffffffffffffffffffffffffffffffff16021790555091602001919060010190612f85565b5b509050612feb91906130d6565b5090565b828054612ffb90613765565b90600052602060002090601f01602090048101928261301d5760008555613064565b82601f1061303657805160ff1916838001178555613064565b82800160010185558215613064579182015b82811115613063578251825591602001919060010190613048565b5b50905061307191906130d6565b5090565b50805461308190613765565b6000825580601f1061309357506130b2565b601f0160209004906000526020600020908101906130b191906130d6565b5b50565b50805460008255906000526020600020908101906130d391906130d6565b50565b5b808211156130ef5760008160009055506001016130d7565b5090565b6000604051905090565b600080fd5b600080fd5b600073ffffffffffffffffffffffffffffffffffffffff82169050919050565b600061313282613107565b9050919050565b61314281613127565b811461314d57600080fd5b50565b60008135905061315f81613139565b92915050565b6000806040838503121561317c5761317b6130fd565b5b600061318a85828601613150565b925050602061319b85828601613150565b9150509250929050565b6000602082840312156131bb576131ba6130fd565b5b60006131c984828501613150565b91505092915050565b600080fd5b600080fd5b6000601f19601f8301169050919050565b7f4e487b7100000000000000000000000000000000000000000000000000000000600052604160045260246000fd5b613225826131dc565b810181811067ffffffffffffffff82111715613244576132436131ed565b5b80604052505050565b60006132576130f3565b9050613263828261321c565b919050565b600067ffffffffffffffff821115613283576132826131ed565b5b61328c826131dc565b9050602081019050919050565b82818337600083830152505050565b60006132bb6132b684613268565b61324d565b9050828152602081018484840111156132d7576132d66131d7565b5b6132e2848285613299565b509392505050565b600082601f8301126132ff576132fe6131d2565b5b813561330f8482602086016132a8565b91505092915050565b600080600060608486031215613331576133306130fd565b5b600061333f86828701613150565b935050602061335086828701613150565b925050604084013567ffffffffffffffff81111561337157613370613102565b5b61337d868287016132ea565b9150509250925092565b6000819050919050565b61339a81613387565b82525050565b60006020820190506133b56000830184613391565b92915050565b6000806000606084860312156133d4576133d36130fd565b5b60006133e286828701613150565b935050602084013567ffffffffffffffff81111561340357613402613102565b5b61340f868287016132ea565b925050604084013567ffffffffffffffff8111156134305761342f613102565b5b61343c868287016132ea565b9150509250925092565b6000806040838503121561345d5761345c6130fd565b5b600061346b85828601613150565b925050602083013567ffffffffffffffff81111561348c5761348b613102565b5b613498858286016132ea565b9150509250929050565b7f4e487b7100000000000000000000000000000000000000000000000000000000600052602160045260246000fd5b6134da81613127565b82525050565b600081519050919050565b600082825260208201905092915050565b60005b8381101561351a5780820151818401526020810190506134ff565b83811115613529576000848401525b50505050565b600061353a826134e0565b61354481856134eb565b93506135548185602086016134fc565b61355d816131dc565b840191505092915050565b600060608301600083015161358060008601826134d1565b50602083015161359360208601826134d1565b50604083015184820360408601526135ab828261352f565b9150508091505092915050565b600060208201905081810360008301526135d28184613568565b905092915050565b7f4e487b7100000000000000000000000000000000000000000000000000000000600052601160045260246000fd5b600061361482613387565b91507fffffffffffffffffffffffffffffffffffffffffffffffffffffffffffffffff821415613647576136466135da565b5b600182019050919050565b600082825260208201905092915050565b600061366e826134e0565b6136788185613652565b93506136888185602086016134fc565b613691816131dc565b840191505092915050565b600060408201905081810360008301526136b68185613663565b905081810360208301526136ca8184613663565b90509392505050565b7f4e487b7100000000000000000000000000000000000000000000000000000000600052603260045260246000fd5b600061370d82613387565b915061371883613387565b92508282101561372b5761372a6135da565b5b828203905092915050565b7f4e487b7100000000000000000000000000000000000000000000000000000000600052602260045260246000fd5b6000600282049050600182168061377d57607f821691505b6020821081141561379157613790613736565b5b5091905056fea264697066735822122052a50d9d29fafaf8f8848a204fb2680730b2bed1efd5971126101c6cc25aa5f264736f6c63430008080033",
  "devdoc": {
    "kind": "dev",
    "methods": {},
    "version": 1
  },
  "userdoc": {
    "kind": "user",
    "methods": {
      "createChannel(address,string,string)": {
        "notice": "Admin Functions///"
      }
    },
    "version": 1
  },
  "storageLayout": {
    "storage": [
      {
        "astId": 71,
        "contract": "contracts/NotificationService.sol:NotificationService",
        "label": "channelAddressToUserSubscription",
        "offset": 0,
        "slot": "0",
        "type": "t_mapping(t_address,t_mapping(t_address,t_struct(Subscription)50_storage))"
      },
      {
        "astId": 78,
        "contract": "contracts/NotificationService.sol:NotificationService",
        "label": "channelAddressToDelegate",
        "offset": 0,
        "slot": "1",
        "type": "t_mapping(t_address,t_mapping(t_address,t_struct(Delegate)57_storage))"
      },
      {
        "astId": 83,
        "contract": "contracts/NotificationService.sol:NotificationService",
        "label": "channelAddressToChannel",
        "offset": 0,
        "slot": "2",
        "type": "t_mapping(t_address,t_struct(Channel)43_storage)"
      },
      {
        "astId": 85,
        "contract": "contracts/NotificationService.sol:NotificationService",
        "label": "channelCounter",
        "offset": 0,
        "slot": "3",
        "type": "t_uint256"
      }
    ],
    "types": {
      "t_address": {
        "encoding": "inplace",
        "label": "address",
        "numberOfBytes": "20"
      },
      "t_array(t_address)dyn_storage": {
        "base": "t_address",
        "encoding": "dynamic_array",
        "label": "address[]",
        "numberOfBytes": "32"
      },
      "t_enum(ChannelState)25": {
        "encoding": "inplace",
        "label": "enum NotificationService.ChannelState",
        "numberOfBytes": "1"
      },
      "t_mapping(t_address,t_mapping(t_address,t_struct(Delegate)57_storage))": {
        "encoding": "mapping",
        "key": "t_address",
        "label": "mapping(address => mapping(address => struct NotificationService.Delegate))",
        "numberOfBytes": "32",
        "value": "t_mapping(t_address,t_struct(Delegate)57_storage)"
      },
      "t_mapping(t_address,t_mapping(t_address,t_struct(Subscription)50_storage))": {
        "encoding": "mapping",
        "key": "t_address",
        "label": "mapping(address => mapping(address => struct NotificationService.Subscription))",
        "numberOfBytes": "32",
        "value": "t_mapping(t_address,t_struct(Subscription)50_storage)"
      },
      "t_mapping(t_address,t_struct(Channel)43_storage)": {
        "encoding": "mapping",
        "key": "t_address",
        "label": "mapping(address => struct NotificationService.Channel)",
        "numberOfBytes": "32",
        "value": "t_struct(Channel)43_storage"
      },
      "t_mapping(t_address,t_struct(Delegate)57_storage)": {
        "encoding": "mapping",
        "key": "t_address",
        "label": "mapping(address => struct NotificationService.Delegate)",
        "numberOfBytes": "32",
        "value": "t_struct(Delegate)57_storage"
      },
      "t_mapping(t_address,t_struct(Subscription)50_storage)": {
        "encoding": "mapping",
        "key": "t_address",
        "label": "mapping(address => struct NotificationService.Subscription)",
        "numberOfBytes": "32",
        "value": "t_struct(Subscription)50_storage"
      },
      "t_string_storage": {
        "encoding": "bytes",
        "label": "string",
        "numberOfBytes": "32"
      },
      "t_struct(Channel)43_storage": {
        "encoding": "inplace",
        "label": "struct NotificationService.Channel",
        "members": [
          {
            "astId": 27,
            "contract": "contracts/NotificationService.sol:NotificationService",
            "label": "channelAddress",
            "offset": 0,
            "slot": "0",
            "type": "t_address"
          },
          {
            "astId": 29,
            "contract": "contracts/NotificationService.sol:NotificationService",
            "label": "admin",
            "offset": 0,
            "slot": "1",
            "type": "t_address"
          },
          {
            "astId": 31,
            "contract": "contracts/NotificationService.sol:NotificationService",
            "label": "channelName",
            "offset": 0,
            "slot": "2",
            "type": "t_string_storage"
          },
          {
            "astId": 33,
            "contract": "contracts/NotificationService.sol:NotificationService",
            "label": "channelDescription",
            "offset": 0,
            "slot": "3",
            "type": "t_string_storage"
          },
          {
            "astId": 36,
            "contract": "contracts/NotificationService.sol:NotificationService",
            "label": "channelState",
            "offset": 0,
            "slot": "4",
            "type": "t_enum(ChannelState)25"
          },
          {
            "astId": 39,
            "contract": "contracts/NotificationService.sol:NotificationService",
            "label": "delegates",
            "offset": 0,
            "slot": "5",
            "type": "t_array(t_address)dyn_storage"
          },
          {
            "astId": 42,
            "contract": "contracts/NotificationService.sol:NotificationService",
            "label": "subsribers",
            "offset": 0,
            "slot": "6",
            "type": "t_array(t_address)dyn_storage"
          }
        ],
        "numberOfBytes": "224"
      },
      "t_struct(Delegate)57_storage": {
        "encoding": "inplace",
        "label": "struct NotificationService.Delegate",
        "members": [
          {
            "astId": 52,
            "contract": "contracts/NotificationService.sol:NotificationService",
            "label": "channelAddress",
            "offset": 0,
            "slot": "0",
            "type": "t_address"
          },
          {
            "astId": 54,
            "contract": "contracts/NotificationService.sol:NotificationService",
            "label": "delegate",
            "offset": 0,
            "slot": "1",
            "type": "t_address"
          },
          {
            "astId": 56,
            "contract": "contracts/NotificationService.sol:NotificationService",
            "label": "delegateIndex",
            "offset": 0,
            "slot": "2",
            "type": "t_uint256"
          }
        ],
        "numberOfBytes": "96"
      },
      "t_struct(Subscription)50_storage": {
        "encoding": "inplace",
        "label": "struct NotificationService.Subscription",
        "members": [
          {
            "astId": 45,
            "contract": "contracts/NotificationService.sol:NotificationService",
            "label": "channelAddress",
            "offset": 0,
            "slot": "0",
            "type": "t_address"
          },
          {
            "astId": 47,
            "contract": "contracts/NotificationService.sol:NotificationService",
            "label": "user",
            "offset": 0,
            "slot": "1",
            "type": "t_address"
          },
          {
            "astId": 49,
            "contract": "contracts/NotificationService.sol:NotificationService",
            "label": "subscriberIndex",
            "offset": 0,
            "slot": "2",
            "type": "t_uint256"
          }
        ],
        "numberOfBytes": "96"
      },
      "t_uint256": {
        "encoding": "inplace",
        "label": "uint256",
        "numberOfBytes": "32"
      }
    }
  }
}